{
  "contractName": "vipCheck",
  "abi": [
    {
      "inputs": [],
      "payable": false,
      "stateMutability": "nonpayable",
      "type": "constructor"
    },
    {
      "constant": false,
      "inputs": [
        {
          "name": "a",
          "type": "uint256"
        },
        {
          "name": "b",
          "type": "uint256"
        }
      ],
      "name": "exec",
      "outputs": [
        {
          "name": "",
          "type": "uint256"
        }
      ],
      "payable": false,
      "stateMutability": "nonpayable",
      "type": "function"
    }
  ],
  "bytecode": "0x608060405234801561001057600080fd5b5060f38061001f6000396000f300608060405260043610603f576000357c0100000000000000000000000000000000000000000000000000000000900463ffffffff16806398757832146044575b600080fd5b348015604f57600080fd5b5060766004803603810190808035906020019092919080359060200190929190505050608c565b6040518082815260200191505060405180910390f35b6000609f828460a790919063ffffffff16565b905092915050565b600080828401905083811015151560bd57600080fd5b80915050929150505600a165627a7a72305820946fba278a1e0754b33b7ff43d9b34b39fe5e18d4cfd427e75fe7cbf8be6295f0029",
  "source": "pragma solidity ^0.4.22;\nimport 'openzeppelin-solidity/contracts/math/SafeMath.sol';\n\ncontract Adminstrator {\n  address public admin;\n\n  modifier onlyAdmin() { \n        if (msg.sender != admin) throw; \n        _; \n\n  } \n\n  function Adminstrator() {\n    admin = msg.sender;\n  }\n\n  function transferAdminstrator(address newAdmin) onlyAdmin {\n    admin = newAdmin; \n  }\n}\n\ncontract vipCheck {\n\tconstructor() {\n\t\t\n\t}\n\tusing SafeMath for uint;\n\n\n\tfunction exec(uint a, uint b) returns (uint){\n        return a.add(b);\n    }\n\n}\n",
  "sourcePath": "/Users/vigneshkarthikeyan/Stuff/zksnarks_example/ZoKrates/Truffle/contracts/vipCheck.sol",
  "compiler": {
    "name": "solc",
    "version": "0.4.24+commit.e67f0147.Emscripten.clang"
  },
  "schemaVersion": "2.0.1",
  "updatedAt": "2018-11-01T16:23:03.066Z"
}